:100000000C945D000C9485000C9485000C94850084
:100010000C9485000C9485000C9485000C9485004C
:100020000C9485000C9485000C9485000C9485003C
:100030000C9485000C9485000C9485000C9485002C
:100040000C9403040C9485000C9485000C9485009A
:100050000C9485000C9485000C9485000C9485000C
:100060000C9485000C94850000000008000201003B
:100070000003040700000000000000000000000072
:10008000250028002B0000000000240027002A0083
:10009000040404040404040402020202020203032E
:1000A0000303030301020408102040800102040836
:1000B0001020010204081020520511241FBECFEFAA
:1000C000D8E0DEBFCDBF11E0A0E0B1E0ECEAFFE098
:1000D00002C005900D92AA33B107D9F721E0AAE337
:1000E000B1E001C01D92AB35B207E1F710E0CDE5FC
:1000F000D0E004C02197FE010E949205CC35D107C3
:10010000C9F70E944D040C94D4070C94000090E0B1
:10011000FC01EC55FF4F249180579F4FFC018491C7
:10012000882399F090E0880F991FFC01EA57FF4F50
:10013000A591B491FC01E458FF4F859194918FB73C
:10014000F894EC91E22BEC938FBF089590E0FC01C2
:10015000E859FF4F2491FC01EC55FF4F3491FC010D
:10016000E057FF4FE491EE23C9F0222339F023300A
:1001700001F1A8F4213019F1223029F1F0E0EE0F5D
:10018000FF1FE458FF4FA591B4918FB7F894EC91FD
:10019000611126C030953E233C938FBF08952730D0
:1001A000A9F02830C9F0243049F7809180008F7D74
:1001B00003C0809180008F7780938000DFCF84B56B
:1001C0008F7784BDDBCF84B58F7DFBCF8091B0006E
:1001D0008F778093B000D2CF8091B0008F7DF9CF20
:1001E0003E2BDACF8E50806480937C0080917A0021
:1001F000806480937A0080917A0086FDFCCF8091A4
:1002000078009091790008953FB7F89480913F016C
:1002100090914001A0914101B091420126B5A89B67
:1002200005C02F3F19F00196A11DB11D3FBFBA2F88
:10023000A92F982F8827BC01CD01620F711D811D48
:10024000911D42E0660F771F881F991F4A95D1F7CD
:1002500008958F929F92AF92BF92CF92DF92EF92CA
:10026000FF920E9404014B015C0188EEC82E83E0DE
:10027000D82EE12CF12C0E940401681979098A0911
:100280009B09683E734081059105A8F321E0C21ADD
:10029000D108E108F10888EE880E83E0981EA11CC1
:1002A000B11CC114D104E104F10429F7FF90EF90CF
:1002B000DF90CF90BF90AF909F908F900895AF92B6
:1002C000BF92CF92DF92EF92FF920F931F93CF9343
:1002D000DF936C017B018B01040F151FEB015E01A5
:1002E000AE18BF08C017D10759F06991D601ED913A
:1002F000FC910190F081E02DC6010995892B79F7D9
:10030000C501DF91CF911F910F91FF90EF90DF908A
:10031000CF90BF90AF900895089590E080E0089549
:10032000FC0101900020E9F73197AF01481B590B00
:10033000BC0183E491E00C945F018F929F92AF9295
:10034000BF920F931F93CF93DF93CDB7DEB7A197E3
:100350000FB6F894DEBF0FBECDBF19A2423008F42D
:100360004AE08E010F5D1F4F842E912CB12CA12CE1
:10037000A50194010E947005E62FB901CA01EA3077
:10038000F4F4E05DD801EE938D01232B242B252B73
:1003900079F790E080E0109719F0CD010E9490016C
:1003A000A1960FB6F894DEBF0FBECDBFDF91CF91FF
:1003B0001F910F91BF90AF909F908F900895E95C2F
:1003C000E1CFCF93DF93EC0160E08E810E94A60025
:1003D00061E08E810E94A60060E08E810E94A600EE
:1003E0008BE891E00197F1F7DF91CF910895CF92DB
:1003F000DF92EF92FF920F931F93CF93DF936C01E5
:100400007C0187E0E80EF11CD0E0C0E0062F10E090
:10041000B8010C2E02C0759567950A94E2F76170D9
:10042000F70181917F010E94A6002196C430D10579
:1004300079F7C601DF91CF911F910F91FF90EF9057
:10044000DF90CF900C94E101CF92DF92EF92FF9278
:100450000F931F93CF93DF93EC01F62E642F8C81C3
:100460000E94A6008D818F3F19F060E00E94A600D7
:100470000F2D10E08F8584FF25C06E0187E0C80E28
:10048000D11CF12CE12CB8010E2C02C0759567959A
:100490000A94E2F76170F60181916F010E94A60053
:1004A000FFEFEF1AFF0A88E0E816F10461F7CE01CA
:1004B000DF91CF911F910F91FF90EF90DF90CF9040
:1004C0000C94E101B80184E0759567958A95E1F790
:1004D000CE010E94F7016F2DCE01DF91CF911F91C8
:1004E0000F91FF90EF90DF90CF900C94F70140E0D8
:1004F000682F83E491E00C942402CF93DF93823041
:1005000029F4909152019860909352018093560182
:100510001092570180E48093580180E18093590143
:1005200080E580935A01809147010E948700809165
:1005300048018F3F11F00E948700809149010E947D
:100540008700C3E4D1E09E012354314080915201E1
:1005500084FD0AC084E090E02196281739073CF416
:100560008E810E948700EFCF88E090E0F5CF8BE38B
:100570009DE00197F1F760E0809147010E94A6009D
:1005800060E0809149010E94A600809148018F3F60
:1005900019F060E00E94A6008091520184FD39C0EC
:1005A00063E083E491E00E94F701CBE4D6E4CE015E
:1005B0000197F1F763E083E491E00E94F70121974E
:1005C000F1F763E083E491E00E94F70183E592E0B4
:1005D0000197F1F762E083E491E00E94F7018091D6
:1005E000520180620E94770284E0809353018CE084
:1005F0000E94770281E00E9477028BE39FE10197DE
:10060000F1F782E08093540186E0DF91CF910C9462
:10061000770280620E9477028BE496E40197F1F7FB
:100620008091520180620E94770283E592E00197F7
:10063000F1F78091520180620E947702D0CF41E0B1
:100640000E94240281E090E008954F925F926F92A1
:100650007F928F929F92AF92BF92CF92DF92EF9252
:10066000FF920F931F93CF936B017C01742EAC010B
:100670009B010E94CF07882399F08CE091E0CF91F5
:100680001F910F91FF90EF90DF90CF90BF90AF90B0
:100690009F908F907F906F905F904F900C949001FF
:1006A00046015701E894B7F82FEF3FEF4FE75FE7B8
:1006B000C501B4010E94CF0781110DC02FEF3FEF9C
:1006C0004FE75FE7C501B4010E94050618161CF448
:1006D00080E191E0D4CF2FEF3FEF4FE75FE4C70118
:1006E000B6010E945D0718161CF484E191E0C7CFA3
:1006F0002FEF3FEF4FE75FECC701B6010E94050601
:1007000087FDF3CF20E030E0A901C701B6010E94C8
:10071000050610E000E087FF0CC041E06DE283E4D5
:1007200091E00E942402F7FAF094F7F8F09401E0C7
:1007300010E0C0E060E070E080E09FE37C1641F0F4
:1007400020E030E040E251E40E940A06CF5FF6CF9D
:10075000A70196010E9499054B015C010E947C064D
:100760002B013C014AE00E949D01080F191FCC2378
:10077000C9F1C301B2010E94AB069B01AC01C501E6
:10078000B4010E9498054B015C0141E06EE283E4F4
:1007900091E00E9424020F5F1F4FC15018F120E02A
:1007A00030E040E251E4C501B4010E9462072B0130
:1007B0003C010E947C064B01B12CA12C4AE0C501F2
:1007C000B4010E949D01080F191FC501B4010E94C8
:1007D000AB069B01AC01C301B2010E9498054B011D
:1007E0005C01DBCFC801CF911F910F91FF90EF907B
:1007F000DF90CF90BF90AF909F908F907F906F9041
:100800005F904F9008951F920F920FB60F92112490
:100810002F933F938F939F93AF93BF9380913B010F
:1008200090913C01A0913D01B0913E0130913A017F
:1008300023E0230F2D3758F50196A11DB11D2093FC
:100840003A0180933B0190933C01A0933D01B0930A
:100850003E0180913F0190914001A0914101B091F2
:1008600042010196A11DB11D80933F01909340016B
:10087000A0934101B0934201BF91AF919F918F919D
:100880003F912F910F900FBE0F901F90189526E863
:10089000230F0296A11DB11DD2CF789484B582603A
:1008A00084BD84B5816084BD85B5826085BD85B514
:1008B000816085BD80916E00816080936E00109292
:1008C000810080918100826080938100809181000D
:1008D000816080938100809180008160809380009E
:1008E0008091B10084608093B1008091B0008160FC
:1008F0008093B00080917A00846080937A00809128
:100900007A00826080937A0080917A00816080937F
:100910007A0080917A00806880937A001092C100FA
:1009200082E00E947D0287E00E94870085E00E94AD
:100930008700E1E0809156018111E0E0E195F0E06F
:10094000ED5BFE4F848980680E94770288E191E028
:100950000E9490010E94290181E00E9477028BE3AE
:100960009FE10197F1F7C0E0D0E08EE00E94F20035
:100970008C018FE00E94F200BC01990F880B990B4B
:100980000E94AD0620E030E040EA50E40E94620799
:1009900020E030E040E85AE30E9462072DEC3CEC96
:1009A0004CE45EE30E940A066B017C01E1E0809169
:1009B00056018111E0E0E195F0E0ED5BFE4F8489A6
:1009C00080680E94770286E291E00E949001B8015F
:1009D000110F880B990B0E94AD0620E030E040EA31
:1009E00050E40E94620720E030E040E85AE30E94B1
:1009F00062072DEC3CEC4CE45EE30E940A0642E008
:100A00000E9425038EE291E00E949001E091560140
:100A1000E23008F045C0E150F0E0ED5BFE4F848924
:100A200080680E94770280E391E00E94900142E09A
:100A3000C701B6010E9425038EE291E00E94900159
:100A40002DEC3CEC4CEE50E4C701B6010E940506CB
:100A500061E018160CF460E085E00E94A60020E03A
:100A600030E048E551E4C701B6010E945D0761E04E
:100A700087FF0BC020E030E040EF50E4C701B60133
:100A80000E940506181624F060E087E00E94A60088
:100A90000E942901209709F468CF0E94000065CFC9
:100AA000E1E0BACFE3E4F1E01382128284E091E066
:100AB000918380838DE084838FEF85838CE08683B0
:100AC0008BE087838AE0808789E0818788E082875E
:100AD0001386148615861686178681E00C947D028F
:100AE000A1E21A2EAA1BBB1BFD010DC0AA1FBB1F32
:100AF000EE1FFF1FA217B307E407F50720F0A21BA4
:100B0000B30BE40BF50B661F771F881F991F1A9410
:100B100069F760957095809590959B01AC01BD013A
:100B2000CF010895EE0FFF1F0590F491E02D099479
:100B30005058BB27AA270E94B0050C9423070E9497
:100B4000150738F00E941C0720F039F49F3F19F474
:100B500026F40C9412070EF4E095E7FB0C940C07B6
:100B6000E92F0E94340758F3BA1762077307840706
:100B7000950720F079F4A6F50C9456070EF4E0954D
:100B80000B2EBA2FA02D0B01B90190010C01CA0147
:100B9000A0011124FF27591B99F0593F50F4503EF2
:100BA00068F11A16F040A22F232F342F4427585FE4
:100BB000F3CF469537952795A795F0405395C9F7FC
:100BC0007EF41F16BA0B620B730B840BBAF09150B4
:100BD000A1F0FF0FBB1F661F771F881FC2F70EC053
:100BE000BA0F621F731F841F48F487957795679526
:100BF000B795F7959E3F08F0B0CF9395880F08F012
:100C00009927EE0F9795879508950E94E80608F4B6
:100C100081E008950E941E060C9423070E941C0781
:100C200058F00E94150740F029F45F3F29F00C941A
:100C30000C0751110C9457070C9412070E943407AB
:100C400068F39923B1F3552391F3951B550BBB27FB
:100C5000AA2762177307840738F09F5F5F4F220F40
:100C6000331F441FAA1FA9F335D00E2E3AF0E0E837
:100C700032D091505040E695001CCAF72BD0FE2F81
:100C800029D0660F771F881FBB1F26173707480715
:100C9000AB07B0E809F0BB0B802DBF01FF279358CD
:100CA0005F4F3AF09E3F510578F00C940C070C947E
:100CB00057075F3FE4F3983ED4F3869577956795A1
:100CC000B795F7959F5FC9F7880F911D9695879502
:100CD00097F90895E1E0660F771F881FBB1F621721
:100CE00073078407BA0720F0621B730B840BBA0BDF
:100CF000EE1F88F7E09508950E943C0788F09F5703
:100D000098F0B92F9927B751B0F0E1F0660F771F2F
:100D1000881F991F1AF0BA95C9F714C0B13091F025
:100D20000E945607B1E008950C945607672F782F5C
:100D30008827B85F39F0B93FCCF3869577956795EA
:100D4000B395D9F73EF490958095709561957F4F56
:100D50008F4F9F4F0895E89409C097FB3EF49095FC
:100D60008095709561957F4F8F4F9F4F9923A9F084
:100D7000F92F96E9BB279395F69587957795679513
:100D8000B795F111F8CFFAF4BB0F11F460FF1BC057
:100D90006F5F7F4F8F4F9F4F16C0882311F096E9EA
:100DA00011C0772321F09EE8872F762F05C0662398
:100DB00071F096E8862F70E060E02AF09A95660F51
:100DC000771F881FDAF7880F9695879597F908950A
:100DD000990F0008550FAA0BE0E8FEEF161617064C
:100DE000E807F907C0F012161306E407F50798F0B4
:100DF000621B730B840B950B39F40A2661F0232BCD
:100E0000242B252B21F408950A2609F4A140A69548
:100E10008FEF811D811D089597F99F6780E870E02D
:100E200060E008959FEF80EC089500240A94161660
:100E3000170618060906089500240A9412161306C8
:100E4000140605060895092E0394000C11F4882356
:100E500052F0BB0F40F4BF2B11F460FF04C06F5F72
:100E60007F4F8F4F9F4F089557FD9058440F551F48
:100E700059F05F3F71F04795880F97FB991F61F01C
:100E80009F3F79F087950895121613061406551F93
:100E9000F2CF4695F1DF08C0161617061806991FFF
:100EA000F1CF86957105610508940895E894BB27F4
:100EB00066277727CB0197F908950E94E80608F482
:100EC0008FEF08950E9475070C9423070E94150761
:100ED00038F00E941C0720F0952311F00C940C07A9
:100EE0000C94120711240C9457070E94340770F3D6
:100EF000959FC1F3950F50E0551F629FF001729FBF
:100F0000BB27F00DB11D639FAA27F00DB11DAA1FCD
:100F1000649F6627B00DA11D661F829F2227B00D1A
:100F2000A11D621F739FB00DA11D621F839FA00DA5
:100F3000611D221F749F3327A00D611D231F849FF5
:100F4000600D211D822F762F6A2F11249F5750404C
:100F50009AF0F1F088234AF0EE0FFF1FBB1F661FC7
:100F6000771F881F91505040A9F79E3F510580F090
:100F70000C940C070C9457075F3FE4F3983ED4F3AE
:100F8000869577956795B795F795E7959F5FC1F734
:100F9000FE2B880F911D9695879597F908950E94CD
:0C0FA000E806880B990B0895F894FFCF29
:100FAC00000000001F035F018D018C016E616E005B
:100FBC00696E66006F766600536F6C617220566FB7
:100FCC006C7461676500536F6C61723A2000560057
:0A0FDC00426174746572793A2000D6
:00000001FF
